:020000040800F2
:1000000000180020951E0008411D0008451D00082D
:1000100000000000000000000000000000000000E0
:10002000000000000000000000000000491D000862
:1000300000000000000000004D1D0008511D0008D8
:10004000E51E000800000000E51E0008E51E00088F
:10005000E51E0008E51E0008611D0008E51E0008F9
:1000600000000000E51E0008E51E0008E51E00086F
:10007000E51E0008E51E0008E51E0008000000005F
:10008000E51E00080000000000000000E51E00085A
:1000900000000000E51E0008E51E00087D1D0008A8
:1000A00000000000E51E000800000000E51E00083A
:1000B000E51E000800000000000000000000000035
:1000C00010B5064C2378002B07D1054B002B02D02E
:1000D000044800E000BF0123237010BD740000201D
:1000E00000000000284E0008044B10B5002B03D080
:1000F0000349044800E000BF10BDC04600000000F6
:1001000078000020284E0008002243088B4274D358
:1001100003098B425FD3030A8B4244D3030B8B4208
:1001200028D3030C8B420DD3FF22090212BA030C11
:100130008B4202D31212090265D0030B8B4219D3F2
:1001400000E0090AC30B8B4201D3CB03C01A524112
:10015000830B8B4201D38B03C01A5241430B8B425A
:1001600001D34B03C01A5241030B8B4201D30B0343
:10017000C01A5241C30A8B4201D3CB02C01A52416A
:10018000830A8B4201D38B02C01A5241430A8B422D
:1001900001D34B02C01A5241030A8B4201D30B0216
:1001A000C01A5241CDD2C3098B4201D3CB01C01A30
:1001B000524183098B4201D38B01C01A524143093A
:1001C0008B4201D34B01C01A524103098B4201D328
:1001D0000B01C01A5241C3088B4201D3CB00C01A95
:1001E000524183088B4201D38B00C01A524143080D
:1001F0008B4201D34B00C01A5241411A00D2014632
:10020000524110467047FFE701B5002000F006F8A4
:1002100002BDC0460029F7D076E770477047C04658
:10022000844608006146FFE71FB500F08FFB0028F9
:1002300001D40021C8421FBD10B500F01BFB404295
:10024000013010BD10B500F081FB002801DB00205B
:1002500010BD012010BDC04610B500F077FB00288E
:1002600001DD002010BD012010BDC04610B500F01A
:1002700027FB002801DC002010BD012010BDC04676
:1002800010B500F01DFB002801DA002010BD012090
:1002900010BDC0461C2101231B04984201D3000C51
:1002A00010391B0A984201D3000A08391B099842E9
:1002B00001D30009043902A2105C40187047C046FF
:1002C000040302020101010100000000000000001F
:1002D0009E2110B5C905041CFFF7D2FF002803D1E9
:1002E000201C00F07BFE10BD9E21201CC90500F0E3
:1002F000BFFC00F073FE80231B069C466044F2E7BF
:10030000F8B54746CE464A0243024500C40F500A9C
:10031000804648005B0A000E9209944680B51E0094
:10032000814602002D0EDF00C90F8C4224D0281A0E
:1003300000280EDD002A3ED16246002A00D1FDE0F1
:10034000421E012800D137E1FF2800D1A9E01000AA
:1003500039E0002863D04B46521B002D00D0E0E06E
:10036000002F00D1CEE0531E012A00D155E1FF2A13
:1003700000D194E01A00D9E02A1A002A00DC99E0A2
:10038000002862D0FF2D00D18BE080236146DB0482
:1003900019438C461B2A00DCD2E00123DB195A01E9
:1003A0006AD50135FF2D5BD00122A3491A405B08B5
:1003B0000B4013431CE0FF2D00D172E08023624606
:1003C000DB041A4394461B2800DC90E00123FB1A4F
:1003D0005A0151D59B019E093000FFF75BFF3300A6
:1003E00005388340854200DC75E0944A2D1A13409D
:1003F0005A0704D00F221A40042A00D004335A01AD
:100400003CD5681CFE2D2BD09B015E0AC0B2C005F6
:100410003043E4072043C0BCB946B046F8BDFE20D7
:100420006A1C104272D1002D00D0AEE0002F00D126
:10043000ECE063460020002BE9D0FB1A5A0100D4FF
:10044000F3E063460C00DB1BD2E7614600295BD07A
:10045000511E012A00D1A7E0FF2A22D00A0099E705
:10046000FF200026D3E7FE216A1C114273D0FF2A29
:10047000F6D0150067447B085A07BBD1DB08FF2D77
:100480000FD05B025E0AE8B2C1E76246002A08D0DC
:100490008022D203134204D04046104201D10C0006
:1004A0004346002BDCD08026F6031E437602FF2055
:1004B000760AACE7002AD6D0421B002D5CD0FF287C
:1004C000EED08023DB041F431B2A00DC82E00123E3
:1004D0004D46634463E72022401B0130121A190085
:1004E0009340C1405A1E934100250B4380E72023CF
:1004F00061461B1A994062460B00C240591E8B414F
:10050000134364E70C0043461500B8E76346FE1A40
:10051000730145D4002E00D05EE7002400200026A1
:1005200075E7FF2BBBD08023DB041F431B2A47DD6D
:10053000012362460C004D46D31A49E705009EE7A9
:1005400061462023D1409B1A62469A4013005A1EEE
:1005500093410B4322E7002D46D1002F62D0634622
:100560000020002B00D152E73B0063445A0183D5A1
:10057000324A013513407FE7002FC4D0531E012AB1
:1005800012D0FF2A8CD01A009EE7002F00D07CE703
:100590006346002B83D180260024FF20F60336E734
:1005A00063460C00DE1B17E73B00634401255A013C
:1005B00000D461E70225F7E663460125FB1A07E749
:1005C00020239B1A38009F403B00D0405A1E934185
:1005D0000343AEE720239B1A39009F403B00D140E4
:1005E0005A1E93410B4373E7002F00D158E7624630
:1005F000002A00D155E78022D203134200D150E7F0
:100600004146114200D04CE743464AE76346002B7F
:1006100083D00C0046460020F9E663460C00DB1B45
:100620000135D5E646460020F1E6002B00D023E751
:1006300000240026EBE6C046FFFFFF7DFFFFFFFB27
:10064000F0B54F464646D6464502C0B547000C1C9D
:100650006D0A3F0EC60F002F00D16FE0FF2F00D1B3
:1006600074E00023802299469A46ED00D204154397
:100670007F3F63025B0A984663001B0EE40F002B6A
:100680004DD0FF2B45D042468021D200C9041143F2
:10069000884600227F3B3100FF1A4B466140C9B2B9
:1006A0000F2B00D9B8E070489B00C3589F46002329
:1006B00098462600454692465346022B00D18DE0CF
:1006C000032B00D1A1E0012B18D03B007F33002B7E
:1006D0006DDD6A0704D00F222A40042A00D00435B9
:1006E0002A0103D5614B1D403B008033FE2B00DD0A
:1006F00074E0AA01520AD8B202E00E0000200022E3
:10070000C005F60710433043E0BCBA46B146A846E0
:10071000F0BD4346002B3FD10222FF3F03E043469A
:10072000002B2DD1012231004B466140C9B2134349
:100730000F2B38D84E489B00C3589F46002D13D12D
:1007400004239946033B00279A4692E7002D05D1E2
:1007500008239946063BFF279A468AE70C239946C9
:10076000093BFF279A4684E72800FFF793FD762789
:10077000431F9D4000237F4299469A463F1A78E7DF
:100780004046FFF787FD4246431F9A4076235B426F
:1007900090461B1A00227EE703234A461A439146DD
:1007A000FC33032277E70E00FF200022A8E7012296
:1007B000D31A1B2BA2DC9E372A00BD40DA406B1EE9
:1007C0009D4115436A0704D00F222A40042A00D015
:1007D00004356A0144D50120002291E7FF20002260
:1007E0008EE780220026FF20D20389E70023984667
:1007F0008022D203154208D04346134205D11A4342
:1008000052022600FF20520A7AE78022D2032A43AE
:100810005202FF20520A73E742466B015501AB4278
:100820001AD21B200022013F01261C0052005B004F
:10083000002C01DB9D4201D85B1B324301380028AC
:10084000F3D1581E834113431D003B007F330E003C
:10085000002B00DD3DE7AAE71A2001225B1BE3E73E
:10086000AA010020520A4BE7404E0008FFFFFFF7A5
:10087000804E000870B5420045024E024C00C30F86
:100880006D0A0120120E760A240EC90FFF2A06D027
:10089000FF2C03D0A24201D1B54206D070BD002D7D
:1008A000FCD1FF2CFAD1002EF8D18B4206D00120CA
:1008B000002AF3D12800431E9841EFE70020EDE71E
:1008C00070B5420045024E024C00C30F6D0A120E75
:1008D000760A240EC80FFF2A1BD0FF2C0ED0002A48
:1008E0001BD1002C01D1002E1CD0002D0CD0834236
:1008F0001CD00221581E0840013870BD002E22D1A4
:10090000002AF4D1002DF2D10028F6D10120404276
:10091000F3E7002D17D1FF2CF0D0002CE7D1002EEB
:10092000E5D1E6E70020002DE7D0E2E7A24205DCB2
:10093000EADBB54202D8E7D30020DEE74342584164
:1009400040000138D9E702204042D6E770B54200A6
:1009500045024E024C00C30F6D0A120E760A240E99
:10096000C80FFF2A0BD0FF2C0DD0002A1FD1002C5E
:1009700016D1002E14D10020002D10D009E0002D3A
:100980000CD1FF2C13D1002E08D1002A08D08342AD
:1009900012D00221581E0840013800E0022070BD2C
:1009A000002DF4D10028FAD101204042F7E7002CB5
:1009B000EDD1002EEBD1ECE7A24205DCF2DBB54233
:1009C00002D8EFD30020EAE7434258414000013803
:1009D000E5E7C04643025B0AF0B54F4646469946F6
:1009E000D646C30F45009846C0B54B460F1C2D0E8A
:1009F00000D1CBE0FF2D00D1CFE08022DB00D2047C
:100A00001A430023914600269A467F3D7C027B00D4
:100A1000640A1B0EFF0F002B00D1A9E0FF2B11D0A1
:100A20008022E400D204144342467F3B5B197A40A3
:100A30000020D2B25D1C0A2E13DD3A000B2E47D0E7
:100A400047463FE02B00FF33002C1ED10222164305
:100A5000424601357A40D2B2FF350A2E00DDE4E08D
:100A60000220022E1CDC013E012E42D802283DD07D
:100A7000012866D100200021C0050843D207104399
:100A8000E0BCBA46B146A846F0BD03221643424632
:100A900001357A40D2B2FF350A2E00DDE4E00320B2
:100AA0000121B140A626F60031420AD19026B600B7
:100AB000314216D1B93EFF3E0E421AD0A1468246BF
:100AC00000E0170053463A00022B0FD04C46504628
:100AD0000328CDD18021C90321434902FF20490ABF
:100AE000CAE780210022FF20C903C5E7FF200021BB
:100AF000C2E7200C49462404240C27000E0C0904EC
:100B0000090C74434F4346434843390C00190918F4
:100B10008C4203D980204002844666443F04080486
:100B20003F0CC0198401671EBC41090C800E891955
:100B3000044389010C43090171D5012361081C405C
:100B40000C432B007F33002B51DD610704D00F21B4
:100B50002140042900D00434210103D5434B1C401B
:100B60002B008033FE2BC1DCA101490AD8B283E7F8
:100B7000002C2CD1012342461E432B007A40012039
:100B8000D2B25D1C0A2E00DD57E76AE7002B10D1B8
:100B90000123042600259A4638E7002B04D10223BE
:100BA0000826FF259A4631E703230C26FF259A469F
:100BB0002CE74846FFF76EFB4A46431F76259A40CE
:100BC00000236D42914600269A462D1A1EE720000A
:100BD000FFF760FB4246431F9C402B1A763B7A404E
:100BE0000020D2B25D1C0A2E00DD26E739E7012184
:100BF000CB1A1B2B00DD3DE79E352100AC40D940D0
:100C0000631E9C4121434B0704D00F230B40042B50
:100C100000D004314B0104D5012000212CE71D0038
:100C20008FE789010020490A26E702230F2E0CD105
:100C300080214B46C9030B420DD00C420BD12143FE
:100C400049023A00FF20490A16E70B2E00D0F7E6CA
:100C5000A1469A4636E780214B46C903194349020B
:100C60004246FF20490A07E70323DFE7FFFFFFF7BC
:100C7000F0B5C64643025B0A4500DA00C40F4802DD
:100C80004F009446420A1E00904600B52D0E3F0EBE
:100C9000C90F8009FF2F59D0012251408C4239D011
:100CA000EA1B002A58DD002F68D0FF2D00D1D1E0CB
:100CB0008023DB0418431B2A00DCE3E001236246A7
:100CC000D31A5A0100D4ACE09B019E093000FFF713
:100CD000E1FA330005388340854200DCC6E0B24AC1
:100CE0002D1A13405A0704D00F221A40042A00D0AC
:100CF00004335A0100D497E06A1CFE2D00D184E031
:100D00009B015E0AD2B2D0053043E407204380BC89
:100D1000B846F0BDEA1B002A41DD002F6BD0FF2D45
:100D200000D197E08023DB0418431B2A00DCCCE0D1
:100D3000012363445A0174D50135FF2D65D001228A
:100D40009A491A405B080B401343CBE700281FD099
:100D50008C4222D02A00FF3A002A35D07A1B002D7F
:100D600000D099E06346002B00D1DDE0531E012A3C
:100D700000D105E1FF2A6BD01A0094E0002873D05F
:100D8000511E012A00D1DFE0FF2A63D00A0092E75A
:100D900001225140A14200D082E72A00FF3A002AF6
:100DA00036D07A1B002D00D1AAE0FF2F00D1DAE067
:100DB00080236146DB0419438C461B2A00DCD4E007
:100DC00001233D001B18B5E7FE276A1C174271D1AD
:100DD000002D00D09EE06346002B00D1D5E000221C
:100DE000002800D18FE71B1A5E0100D4D6E06346CD
:100DF0000C00C31A76E7002836D0511E012A00D114
:100E00009AE0FF2A26D00A008FE7FF2200267AE721
:100E1000FE276A1C174262D0FF2AF6D015006044F4
:100E200043085A0700D05FE7DB08FF2D12D05B02B2
:100E30005E0AEAB267E76246002A00D193E0002822
:100E400008D08022D203134204D04046104201D180
:100E50000C004346002BD8D08026F6031E437602B2
:100E6000FF22760A4FE743461500DEE72022401BAB
:100E70000130121A19009340C1405A1E93410025B7
:100E80000B432FE720239B1A010098400300D14019
:100E90005A1E93410B4312E7FF2FD9D0802364469B
:100EA000DB041C43A4461B2A52DD01230C003D0039
:100EB000C31A06E763461E1A730139D4002E00D008
:100EC00004E70024002200261DE720239B1A0100CE
:100ED00098400300D1405A1E93410B4329E7002D4F
:100EE000A9D16346002B56D00022002800D10AE782
:100EF000030063445A0194D52B4A0135134090E70F
:100F00006346002BAFD0531E012A15D0FF2A2AD0EA
:100F10001A0052E76246002A91D1002898D1802613
:100F20000024FF22F603EEE60C00434615007CE7A2
:100F300063460C00C61AC9E60300634401255A0142
:100F400000D46EE70225FAE6634601251B1AB8E6CF
:100F500064462023D4409B1A62469A4013005A1ECE
:100F600093412343A2E7434674E761462023D140DF
:100F70009B1A62469A4013005A1E93410B4320E786
:100F800063460C000125C31A9BE6002899D00C008B
:100F900046460022B7E646460022B4E6002B00D0C3
:100FA0003FE700240026AEE6FFFFFFFBFFFFFF7DCB
:100FB00043024A02400049005B0A520A090E000E31
:100FC000FF2806D00020FF2902D1531E9A411000AD
:100FD0007047FE38002BFBD1F4E7C04641024200C7
:100FE000C30F490A0020120E7E2A03DD9D2A02DD6E
:100FF000094A98187047802000040143952A07DCAD
:101000009620821AD1404842002BF3D10800F1E724
:10101000963A9140F7E7C046FFFFFF7F70B5002882
:1010200013D0C317C5185D40C40F2800FFF732F96D
:101030009E2301001B1A962B0FDC082831D008399B
:101040008D406D026D0AD8B202E000240020002518
:10105000C0052843E407204370BD992B0CDD052211
:10106000121A2800D040020008001B3085402800DA
:10107000451EA84102431500052916DC2A000F4829
:1010800002406E0709D00F263540042D05D00432EA
:10109000550102D59F2302405B1A9201550AD8B22E
:1010A000D6E76D0296206D0AD2E74A1F95402A00C6
:1010B000024802406E07F0D0E5E7C046FFFFFFFBA5
:1010C00070B5041E0ED0FFF7E5F89E2301001B1A31
:1010D000962B0CDC08282CD008398C406402640A5A
:1010E000D8B201E000200024C005204370BD992B38
:1010F0000ADD020020001B3290400200501E824197
:101100000520401AC4401443052916DC22000F486C
:101110000240650709D00F252C40042C05D004326D
:10112000540102D59F2302405B1A9201540AD8B29F
:10113000DAE764029620640AD6E74A1F9440220048
:10114000024802406507F0D0E5E7C046FFFFFFFB1D
:10115000F0B54546DE4657464E46E0B51F000B0348
:101160001B0B9B464D00CB0F04009146984687B061
:101170006D0D00D1CDE1CE4B9D4200D1E9E15A4643
:10118000430FD2001343802212041A43C3009A462D
:10119000C84B93469C4600230026654400933C03BD
:1011A0007B004846240B5B0DFF0F002B00D189E12B
:1011B000BF4A934219D0420FE40022438024240402
:1011C0001443BC4A00219446424663445B19019390
:1011D000019B7A400133C000D2B202930A2E1CDD7B
:1011E0003A000B2E5ED0474656E04946B04B2143AD
:1011F000EB18019300292AD18020022200012B0044
:1012000084461643424663447A40D2B202930A2E81
:1012100000DD31E2002000240221022E26DC013E06
:10122000012E52D802294CD0012900D018E1002308
:10123000002400251B052343D2071343280019006F
:1012400007B0F0BCBB46B246A946A046F0BD80211F
:10125000032209012B008C461643424663447A4020
:10126000D2B202930A2E00DD28E203210125B54007
:10127000AC46A6266346F600354033420BD1902695
:10128000B600334218D1B93EFF3E1E421DD0A346E0
:101290008246009100E0170000993A00022910D020
:1012A0005C4650460329BFD180231B031C43240303
:1012B00005007F4B240BBDE7802400227C4B2403D8
:1012C000B8E7002400257A4BB4E753461E04360CD9
:1012D0001F0C3300010C0004000C4343984603002C
:1012E0007B43994633004B439C4643460D001B0C01
:1012F0009A467D43CC44D4440095E14504D98023EB
:101300005B0299464D44009563461B0C1D006346E5
:101310001B049C4643461B041B0C984663464344EF
:101320000393230C984633002404240C63439C4607
:1013300023007B43994643465E435F434E446346E6
:10134000B2461E0C5644B14503D980235B02994630
:101350004F44330C99463B004B4405936346AC46DF
:101360001F043F0C3604F619B444634604935B46ED
:101370001B0C9C465B461F043F0C3B0043439946B5
:10138000634643439A464B4660461B0C9B46484384
:101390007943514459448A4503D980235B029A46D4
:1013A00050440B0C9A464B461B041B0C99463B00C1
:1013B0006343090445464944994663465C436B438D
:1013C0009C464B461B0C98466F433F19474450447C
:1013D000BC4203D980235B029846C444049B009D11
:1013E00098464544B542B641734298464B461E0462
:1013F000059B3C049946360CA4194C44A1468346EF
:101400006E18C1448E428941CB445D4649426D18F5
:101410009C42A441C1459B41834580418D42894105
:101420005B4264421C434042039B494201437002B9
:101430003F0C1843E419471EB84164186444F60D84
:1014400061023043EC0D6E020C433043C90100D4FD
:10145000F1E00121430801400B43E0071843640811
:101460001549029B8C466344002B00DC97E0410742
:1014700009D00F210140042905D0011D814280417E
:10148000404224180800E10106D58021C9008C469D
:101490000A4B1C40029B634409498B4200DD10E764
:1014A0006107C50864025B050D43240B5B0DC1E6B3
:1014B000FF07000001FCFFFFFF030000FFFFFFFE2E
:1014C000FE0700004B46234359D0002C00D1A3E077
:1014D0002000FEF7DFFE010003000B391D22521A27
:1014E00049461800D1404A460838824084401000DE
:1014F0000C43744AEB1A9446424663440193019BA1
:101500007A4001330021D2B202930A2E00DD67E651
:1015100083E65B4603439A462AD05B46002B6DD098
:101520005846FEF7B7FE010003000B391D22521A80
:10153000210018005D46D140083885400A008440EB
:101540002A439346A2465F4D0026ED1A00230093DE
:1015500025E65B4603439A4605D100239B460233AA
:10156000082600931BE6032382460C26009316E60A
:1015700000239B4601330426002500930FE64246D4
:10158000013301951E43019B7A4001330024002062
:101590000121D2B202930A2E00DD21E63DE60121AF
:1015A000C91A382900DD42E61F2947DD1F2625001C
:1015B0007642F31ADD402B00202905D04249029DD6
:1015C0008C466544AC402043411E884118430723A4
:1015D0001D000024054003424AD00F23002403408D
:1015E000042B42D0031D834280414042241818003E
:1015F00023023AD50123002400251BE6FEF74AFE0C
:1016000001000300153120331C298FDD083800222A
:1016100084409246A34696E7FEF73CFE0100030095
:10162000153120331C2900DC58E702004C46083AEB
:10163000002094405DE7019B029311E7234B2600B5
:101640009C460300029DCB406544AE401E43030010
:10165000AB40581E834130001843CC404307C7D0ED
:101660000F230340042BBDD1C2E765076402240B9E
:10167000C00800230543DDE5002502230F2E0CD111
:1016800080245B46240323420ED021420CD10C431C
:1016900024033A000E4B240BCCE50B2E00D0A2E520
:1016A0008B46AA460093F7E580245B4624031C433F
:1016B000240342465546064B240BBBE54D4621000C
:1016C0000323DBE70DFCFFFF3E0400001E040000C7
:1016D000FF07000070B5002816D0C317C5185D407D
:1016E000C40F2800FEF7D6FD114B1B1A0A2816DC82
:1016F00002002E00153296400B22121AD5405B05CF
:101700002D032D0B5B0D03E0002400230025002694
:101710001B052B43E40723433000190070BD0B3831
:1017200085405B052D0300262D0B5B0DF0E7C046C1
:101730001E0400000200F0B54B000D03400F5B0DCE
:10174000CC0F6D0A3A490543581CD70008420AD00D
:1017500038495918FE2916DDFF200022C005104324
:10176000E4072043F0BD002B06D13D4326D00522DF
:101770009201520AD8B2F1E72F43EDD08022D20372
:10178000FF202A43EAE700291BDD9201501E824117
:10179000ED007F0F2A433A43530747D00F231340EE
:1017A000042B00D004328023DB0413403ED0481CBD
:1017B000FE29D1D09201520AC0B2CFE70020002208
:1017C000CCE70A0017322FDB802636042E431E2575
:1017D0006D1A1F2D11DD02225242521A3100D140E2
:1017E000202D04D0144A944663449E4037433A0067
:1017F000531E9A410A430021CEE7104A380094460E
:10180000634498403A00411E88419E40EA4030437C
:10181000024300215307C1D180211300C9040120D4
:101820000B400A42C6D1A3E70023A0E70B009FE7C5
:10183000FE07000080FCFFFFA2FCFFFF82FCFFFF11
:1018400007211A4A10B513688B4306390B431360FE
:101850008022174B520019680A4380211A60C90080
:101860001A680A42FCD05968124A11408022D201FB
:101870000A435A601A6810490A401A609A680F4968
:101880000A4007219A609A688A439A60084A31316F
:1018900093681942FCD1936809490A480B40936048
:1018A00000F0DEFD074800F0EBFD10BD0020024017
:1018B00000100240FF80FFFFFFC7FFFFFFF0FFFFA8
:1018C000FF8FFFFF006CDC02F0B5DE4657464E4648
:1018D0004546E0B501278022FD4C9FB0236C5205A0
:1018E0003B432364236CFB493B400193019BE36B27
:1018F00010251343E363E36BA0261340C02200933B
:10190000009B0B6A12061B021B0A13430B62082181
:10191000F14BF6051A680A431A601A682A431A60DE
:10192000FFF78EFF082200210EA803F041FA1022D3
:10193000002116A803F03CFA0423626B1A43626389
:10194000626B13400793079B636B3B436363636B5B
:101950003B400893089B0223626B1A436263626BED
:1019600013400993099BDD4B9846802342461B0296
:10197000936180225200B261924680224046D20199
:1019800082612020B5628346B062E130FF30B062F0
:10199000149314AB814619004046159700F044FBA0
:1019A0001495002514AB190030001597169517955E
:1019B000189500F039FB5B46149314AB1900300006
:1019C000159716951795189500F02EFB8023149304
:1019D00014AB190030001595189500F025FB5346FF
:1019E000149314AB19003000159716951795189598
:1019F00000F01AFB4B46149314AB190030001597F6
:101A000016951795189500F00FFB802214AB19005E
:101A1000D20140461492159716951795189500F027
:101A200003FB6B4608216A460E919F8701233631DE
:101A3000521813700EA800F09BFAC0223368A84910
:101A400093433360F368A7489343A74AF360136E48
:101A50000B40C1211366A54B89005A5802405A50C9
:101A600040221A600021303A0AA803F0A1F9182296
:101A700000210EA803F09CF91022002116A803F003
:101A800097F98022636D52039B009B086365236C6A
:101A900014A913432364236C300013400593059B62
:101AA000636B3B436363636B14973B400693069BF6
:101AB0000323159300F0B8FA80230B950C950D9530
:101AC0008B4DDB0528000AA90A9300F00DFA80224D
:101AD000EB68920313438022EB6092012B68134260
:101AE000FCD00024F0232A600EA981480F930E94A5
:101AF000109411941294139400F010FA01222B699F
:101B0000904693432B612B697A4A022713400722A0
:101B10002B616B69914693436B616B6969329343A7
:101B20006B616B686C3A93436B606B6893460432ED
:101B300093436B60AA68704B00211A4080235B05B9
:101B400013430F22AB60AB6A14A89343AB626B697B
:101B50006A4A062613401E326B61FF325C4D03F069
:101B600027F90C22002110A803F022F96B6D644ABA
:101B70000EA913406B656B6B62483B436B636B6BE9
:101B80000F973B400493049B40230E939A46434691
:101B90001396119300F048FA80230E9343460EA942
:101BA000584811930F9710941294139600F03CFA32
:101BB0008022C521EB6B92031343EB63EB6B89002F
:101BC00013404A4A0A930A9B53581B021B0A53505C
:101BD00080231B0413604C4B4C4E15932E2314A9E9
:101BE0003000149416941794189319941A9400F0D2
:101BF000BFFB802372689B0413437360F368444AFD
:101C000000211340F360F368424A14A81340F360C4
:101C10003368414A134033603368404A13403360AD
:101C2000282203F0C5F81022002110A803F0C0F804
:101C30006B6D3B4A414613408022A0206B652B6CA4
:101C4000520113432B642B6CC00513400293029B7B
:101C50006B6B0B436B636B6B0E970B4003930EA97F
:101C6000039B0F9700F0E0F9A0205B460EA9C0058A
:101C70000E9310941194129413940F9700F0D4F9CA
:101C8000A02053460EA9C0050E93109411941294EF
:101C900013940F9700F0C8F982235B001593E0239B
:101CA000DB00169380239B001993E93BFF3B1A93BB
:101CB0004B461494179418941B941C94194C14A913
:101CC00020001D9300F08EFB102263682CE0C046BC
:101CD0000010024000ED00E000000140000800504C
:101CE000FFFFFFF8FFFF00FF0018024000E100E0E7
:101CF00000240140FFFFFFDFE8FFFF6FFFFEFFFF53
:101D0000FFCFFFFF000400505D3E30200054004034
:101D100001F8FFFFFF7FFFFFFFFFF7FFFFFFFDFF62
:101D2000FF3FFFFF00300140934363606368083A60
:101D30001343636001F0BEFA01F066FDFCE7C046A4
:101D4000FEE7C046FEE7C0467047C0467047C04643
:101D5000024A1368013313607047C0461404002020
:101D60000822044BD9680A4203D0DA60024B073AD2
:101D70001A707047001802409000002008223A4B69
:101D800099690A4209D0D9690A43DA619A69D2038A
:101D900059D502211A680A431A600222324B996906
:101DA0000A4202D019680A4246D12F4A93695B075A
:101DB00009D5536A2D4ADBB2117800292AD02C4963
:101DC0000B7000231370284A93699B0602D4936911
:101DD000DB061ED52021244BDA690A43DA61DA6971
:101DE00010390A43DA61022219680A4209D01968D7
:101DF0009143013A19609A611D4A1378013BDBB2A5
:101E000013700422184B19680A4202D019689143D2
:101E100019607047164A11785F29D4D8117815488F
:101E2000435401211078144B1954144B1970137832
:101E30000133DBB21370C6E70D4A11785F290AD966
:101E400000229A62B1E704211A680A431A6001224B
:101E5000064B1A70A1E711780948415C9962137822
:101E60000133DBB21370A0E70054004000000020F3
:101E7000EC020020F002002050030020100400209B
:101E80008C0200208022024B12059A607047C046E7
:101E900000ED00E00D488546FFF7F4FF002103E068
:101EA0000B4B5B58435004310A480B4B42189A4283
:101EB000F6D30A4A02E0002313600432084B9A4228
:101EC000F9D302F083FFFFF7FFFCFEE700180020C4
:101ED000B86C00080000002074000020740000208E
:101EE00050050020FEE700008268030010B50120C5
:101EF000D20710D48C684A68D8682243CC68096835
:101F00002243054C204002430020DA601A69920007
:101F100092080A431A6110BDC73FFFFFC268C2683A
:101F20008268030010B50120D20718D4DA68920243
:101F300016D40A688C68D8682243CC6822430C699E
:101F400022434C692243094C20400243DA60DA689C
:101F50000020920203D59A6A49680A439A6210BD2A
:101F60004A68F02AE5D1D8680A68E6E73CC2FEFF75
:101F700030B503000079002816D01A680020002A26
:101F800011D0587901282FD0022818D0002821D04C
:101F900001209B79002B06D0022B2AD0032B38D0AE
:101FA000012B2ED0012030BD80251E4A1C685159BE
:101FB000A143515184215358A3435350F3E7802444
:101FC000184908591043085104340859104308515E
:101FD0000020DEE7842513494C5994434C51043DBD
:101FE0004C5914434C51D4E780240E49085990436E
:101FF000E9E70C4B19689143196059680A435A6024
:10200000D1E7084B59689143596019680A431A602F
:10201000C9E7044B19681143196059680A435A60AB
:10202000C1E7C04600180240F0B5DE4657464E46AE
:102030004546E0B50F6881468B4638001F2285B0C3
:102040007B0807D001242100400019400843013AD1
:102050005B08F8D1904000D129E1FEF71BF93B0065
:102060000600F34000D127E15B465B680124019341
:10207000013B039304E03B000136F34000D1BEE096
:1020800023003D00B3401D401F42F4D04B461B6867
:102090009A466B08984600D1FBE028001F222100D9
:1020A000400019400843013A5B08F8D1904007D03E
:1020B000FEF7F0F803234000524683409A439246CD
:1020C000434628001F222100400019400843013ADE
:1020D0005B08F8D1904000D1D7E0FEF7DBF8400074
:1020E000019B5246834013434A461360039B012BD6
:1020F00000D898E05B461B69280002934B46DB68DA
:102100001F229A464346002B00D1C9E0210040001F
:1021100019400843013A5B08F8D1904007D0FEF718
:10212000B9F803234000524683409A4392464346FF
:1021300028001F222100400019400843013A5B0893
:10214000F8D1904000D1A2E0FEF7A4F84000029B35
:102150005246834013434A46D360019B022B8AD1E7
:102160004346002B00D1E9E028001F222100400057
:1021700019400843013A5B08F8D1904004D0FEF7BB
:1021800089F8072800DC9EE05B465B6902934B46BA
:102190005B6A9A462B0A98466D0A00D1D1E02B0063
:1021A00040461F222100400019400843013A5B08C5
:1021B000F8D1904007D0FEF76DF80F23800052460B
:1021C00083409A4392461F234246210052002940F1
:1021D0000A43013B6D08F8D110009840002800D157
:1021E000AAE0FEF757F88000029B52468340134353
:1021F0004A4653623B000136F34000D040E7039B60
:10220000012B08D85A464B46D2685B687A43BB43D9
:1022100013434A465360002005B0F0BCBB46B246AB
:10222000A946A046F0BD5B469B68029393689A4618
:102230004346002B00D178E028001F2221004000F7
:1022400019400843013A5B08F8D1904007D0FEF7E7
:1022500021F803234000524683409A439246434666
:1022600028001F222100400019400843013A5B0862
:10227000F8D1904025D0FEF70DF84000029B524661
:10228000834013434A46936034E7402028E74020C8
:102290005DE753460322802093439A4600061CE7DD
:1022A00053460322802093439A4600064CE720269B
:1022B0003B00F34000D0D7E65B465B68013B0393ED
:1022C0009DE74020DAE75B465B6902934B461B6A59
:1022D0009A464346002B44D028001F22210040008C
:1022E00019400843013A5B08F8D1904007D0FDF748
:1022F000D1FF0F238000524683409A4392461F230A
:10230000424621006D0011400D43013B5208F8D1B7
:102310002800984023D0FDF7BDFF8000029B524665
:10232000834013434A461362A5E6534603228020A6
:1023300093439A4600069EE7802055E780200006DA
:102340001DE7DD07D807F7D52800FDF7A3FF0F230A
:102350008000834052469A43924628003EE7802000
:10236000DCE753460F22802093439A460006D2E7CB
:1023700030B5012403688D68A3430360CB6802680D
:102380001B022B43144D2A40134303604B68134A2E
:10239000036103682343036083680C69134083600F
:1023A00082688B69D20A2343D20213438360002CD4
:1023B00004D0802382681B02134383600368084AA9
:1023C00013400A68134303604368044A13404A6990
:1023D00013434360002030BDFFE0FFFFFF7FFFFF9E
:1023E000FFFFCFFF0368020070B501205B0629D410
:1023F0004E680B6848693343CE68156833430E69ED
:102400000C6A33438E6903433343CE69000C334374
:10241000104E234335402B43136053688D680E4E96
:10242000284333401843802350601B019D4204D24F
:1024300080205368400103435360802300209B01A8
:102440009C4204D0D36905490B40D36170BD8B8C8D
:102450001361F7E74000FFFFFBF0FFFFFFF7FFFF0F
:10246000FA2110B58900FDF74FFE0022034B013819
:1024700058609A6005321A6010BDC04610E000E056
:10248000014B18607047C0460400002070B5154C21
:10249000154BA2681A4018331343A36002F05AFA8E
:1024A0000500A368002B16DBA3680F4A0125134023
:1024B00001221343A36002F04DFA0400094E336871
:1024C0001D4206D102F046FA001B0128F7D9002070
:1024D00000E0012070BD02F03DFA401B0128E0D968
:1024E0000020F7E700240140E8FFFF7FF8B5104C1B
:1024F000104AA3680500134004221343A36002F0AE
:1025000029FA0427060023681F420AD0236C0A48D0
:102510001B041B0C58430949FDF7F6FD28800120D8
:10252000F8BD02F017FA801B0128ECD90020F7E76C
:1025300000240140E8FFFF7FE40C0000FF0F0000D3
:1025400010B5080002F02EFA10BDC04610B5080004
:1025500002F028FA10BDC046F0B5DE4657464E469A
:102560004546E0B589B00E1C9A46071C0192FEF75D
:1025700035FD45B2301CFEF731FD002143B2381C59
:102580009946FDF75FFE002800D032E1ECB2002151
:10259000301CFDF757FE002803D04B46013B5BB2D1
:1025A00099466434E4B2C72C00D926E14B46643323
:1025B000DBB20020C72B00D914E13221904AB44687
:1025C00000230E003224110006E00132D3B29E42F5
:1025D0000BD39C19621088566410E2B28542F4DC79
:1025E00003DA013AD6B29E42F3D266468B46002306
:1025F000321CA44680463221484632251E005C46E5
:10260000914606E00132D6B2B1420BD375186B1079
:10261000E3566D10EAB29842F4DC03DA013AD1B223
:10262000B142F3D24046A34698466446FEF7F6FC14
:1026300003904046FEF7F2FC5A46631C4E46814624
:10264000D0560293FEF7EAFC59466A1C804688562B
:102650000592FEF7E3FC039983464046FEF708FB2C
:10266000494604905846FEF703FB011C0498FEF708
:10267000B1F9011CFE208005FDF7E2FF03990490EB
:10268000381CFEF7F5FA49460390301CFEF7F0FAC5
:10269000391C81464046FEF7EBFA311C071C5846B0
:1026A000FEF7E6FA4946061C0398FEF793F9391C33
:1026B00083464846FEF78EF9311C80460398FEF7A4
:1026C00089F9311C8146381CFEF784F96B005B19CF
:1026D0004C4A1F01DF19029BD119061CC856150070
:1026E0000391FEF79BFC4146FEF774F9059A0690AC
:1026F0009446530063441A019A189446654405921F
:102700000795029BE856FEF789FC5946FEF762F9E9
:10271000011C0698FDF7F4FD0399051C0857FEF708
:102720007DFC311CFEF756F9011C281CFDF7E8FD65
:102730000799051C0857FEF771FC4946FEF74AF950
:10274000011C281CFDF7DCFD0499FEF743F92E4D12
:10275000019A029BEF191060F856FEF75FFC4146A4
:10276000FEF738F980460598029B84466544E85692
:10277000FEF754FC5946FEF72DF9011C4046FDF7C3
:10278000BFFD80463857FEF749FC311CFEF722F9A1
:10279000011C4046FDF7B4FD061C2857FEF73EFC21
:1027A0004946FEF717F9011C301CFDF7A9FD0499F5
:1027B000FEF710F95346019C186020681349FEF794
:1027C00009F9FE218905FDF79BFD53462060186835
:1027D0000E49FEF7FFF8FE218905FDF791FD5346EE
:1027E0001860012009B0F0BCBB46B246A946A0461D
:1027F000F0BD013DECB26DB2C9E60020F2E7C04683
:10280000D84E00080C4F0008385900086F12033BDF
:10281000F0B5DE46454657464E46A0238022E0B539
:10282000DB05920095B09A6102F09AF80022F54B10
:10283000F54F1A7080460C3238000EA901F098FF4F
:10284000F24DF34B28600393002804D040211A680E
:1028500013780B431370EF4C0C22200011A901F0E8
:1028600031FC2860002806D0039B1A688023117869
:102870005B420B431370E84B186899464346181A9D
:10288000FEF71EFCE549061CFEF7A4F8311C051CEA
:10289000E348FDF7D5FE42464B461A600CAB0C22CE
:1028A0009B5E061C9B460CAB14229B5E9A460CABAF
:1028B00016229B5E99460CAB18229B5E0CAA1A212D
:1028C000525E0CA900931C23C95E0CAB0A20185E53
:1028D00001920291FEF7A2FB8046380001F02AFF28
:1028E00041460690301CFEF775F80990380001F05B
:1028F00023FF80465846FEF791FB311CFEF76AF82D
:10290000061C200001F040FC071C5046FEF786FB29
:10291000391CFEF75FF8C34B1968FEF7A9F9079059
:10292000200001F031FC071C4846FEF777FB391CFC
:10293000FEF750F8BC4B1968FEF79AF90890200092
:1029400001F022FC071C0098FEF768FB391CFEF71B
:1029500041F8B64B1968FEF78BF90090200001F0A2
:1029600015FC071C0298FEF759FB391CFEF732F8DC
:10297000AF4B1968FEF77CF9AE4B049020001F683E
:1029800001F004FC041C0198FEF748FB211CFEF733
:1029900021F8011C381CFEF76BF90999059006987F
:1029A000FEF718F8FE24311C071C4046FEF712F80B
:1029B000A14BA4059A461B68A1461B78061C0C94E3
:1029C0000D94DB0700D53DE39C4B381C1B68191C9C
:1029D0009B46FDF7FFFF4946FDF7FCFF5946029075
:1029E000301CFDF7F7FF211CFDF7F4FF0799804627
:1029F000281CFDF7EFFF924F3968FDF781FC08991D
:102A00003860041C281CFDF7E5FF8E4E3168FDF789
:102A100077FC071C306060008B494008FDF726FCFE
:102A2000002807D1780088494008FDF71FFC0028DE
:102A300000D1B9E20121039B1A6813780B4313708C
:102A4000824B00981968FDF7C5FF814B041C9B461B
:102A50001800291C00F070FF211C58467D4A00F028
:102A6000F3FF5B461C687C49201CFDF709FC00282D
:102A700006D0201C7949FEF7FBF85B46041C186061
:102A80007749201CFDF7DEFB002806D0201C734987
:102A9000FDF736FC5B46041C1860201C02F03CF875
:102AA0005B4600908146186802F096F853461B6812
:102AB000061C1B7801905B0739D549460298FDF743
:102AC00089FF311C041C4046FDF784FF011C201CBB
:102AD000FEF7CEF8311C071C0298FDF77BFF494634
:102AE000041C4046FDF776FF011C201CFDF708FC86
:102AF000494680460498FDF76DFF311C041C05987B
:102B0000FDF768FF011C201CFEF7B2F8311C041C05
:102B10000498FDF75FFF4946061C0598FDF75AFF2C
:102B2000011C301CFDF7ECFB0297059004944D4B03
:102B3000291C1800994600F0FFFE4B4E291C30005E
:102B400000F0FAFE53461B681878830705D5039BEF
:102B50001B681B78DB0700D42DE20007C00FFEF7CF
:102B6000B9FD424B424AFEF7F3FAFEF7E3FD029944
:102B7000021C484600F068FF53461B68187800079F
:102B8000C00FFEF7A7FD3A4A384BFEF7E1FAFEF711
:102B9000D1FD4146021C300000F056FF4B465B68F9
:102BA000049373680593334C009823686768191C75
:102BB0009846FDF70FFF391C051C0198FDF70AFF29
:102BC000011C281CFEF754F84B4619680290FDF7CB
:102BD00097FB294A41461060039001989246FDF701
:102BE000F9FE391C051C0098FDF7F4FE011C281C99
:102BF000FDF786FB31680690FDF782FB5246506078
:102C00005A463BE0900000204C0100209C00002030
:102C1000180000202801002024010020BD3786353F
:102C200000247449A0000020A4000020A800002077
:102C30009800002094000020140000200C000020C8
:102C40009801002070010020CDCC4C3E08000020EF
:102C5000AC0000206F12833ADB0F4940DB0FC94004
:102C6000DB0F49C09C010020140200207493783FC0
:102C7000FA7E6ABC8C01002074010020A1688024C7
:102C8000051C1068FDF73CFB51462406A4468860ED
:102C90000699079061448A46594640464C68414629
:102CA000FDF798FE391C8046381CFDF793FE011C89
:102CB0004046FDF725FB01F0E7FF211C071C201C07
:102CC000FDF788FE391CFDF785FE594680468F6862
:102CD0000398E549FDF77EFEFEF780F9E24903B26D
:102CE000281C0393FDF776FEFEF778F9DF4905B25D
:102CF00007980695FDF76EFEFEF770F9211C02B2EB
:102D000050460792FDF766FE0499FDF7F9FAD84997
:102D1000FDF760FEFEF762F9211C03B202980493EE
:102D2000FDF758FE0599FDF7EBFAD149FDF752FE84
:102D3000FEF754F9CF4902B2201C0592FDF74AFE76
:102D4000FEF74CF904B208944C46391C5046FDF786
:102D500041FEA168FDF7D4FA019B009D041C291CCB
:102D6000181C9A46FDF784FF4146FDF733FE011C0F
:102D7000201CFDF7C5FAC049FDF72CFEFEF72EF921
:102D8000391C04B202980094FDF724FEB168FDF7E7
:102D9000B7FA5146041C281CFDF7B2FA4146FDF76C
:102DA00019FE011C201CFDF763FFB349FDF712FE5D
:102DB000FEF714F900B2B1490190381CFDF70AFE84
:102DC000FEF70CF94D4607B2E868029701F05CFF88
:102DD000A549FDF7FFFDFEF701F905B2F068099579
:102DE00001F052FFA049FDF7F5FDFEF7F7F807B235
:102DF000B8465F46F86801F047FF9C49FDF7EAFDD9
:102E0000FEF7ECF84B4607B2D86901F03DFF984950
:102E1000FDF7E0FDFEF7E2F803B2F0690A9301F076
:102E200033FF9349FDF7D6FDFEF7D8F85A4605B2B1
:102E3000D06901F029FF8F49FDF7CCFDFEF7CEF8F0
:102E40004C4602B20B92E06A01F01EFF8A49FDF780
:102E5000C1FDFEF7C3F804B2F06A01F015FF864920
:102E6000FDF7B8FDFEF7BAF806B2B2465E46F06A64
:102E700001F00AFF8149FDF7ADFDFEF7AFF8202212
:102E8000039903B27E48A14681548AB22121120AD5
:102E9000425422220699040081548AB22321120A44
:102EA00042542422079981548AB22521120A42549D
:102EB0002622049981548AB22721120A42542822D8
:102EC000059981548AB22921120A42542A2208996A
:102ED00081548AB22B21120A42542C220099815427
:102EE0008AB22D21120A42542E2201980231A05496
:102EF00082B2120A6254302202994046A1548AB228
:102F00003121120A625432220999A1548AB2332122
:102F1000120A62543422A05482B2120A023162545C
:102F200036220A99A754BFB23F0A0132A7548EB283
:102F30000132A154360A0132A6540132A554ADB271
:102F40000B992D0A0132A5540132A1548AB2110AFB
:102F50003D22A15449460132A1548AB23F21120AAE
:102F6000625451464022A1548AB24121120A62544D
:102F700042222000A3549BB21B0A0132A35411A980
:102F8000373A443001F046FF20000C220EA95030A1
:102F900001F040FF01223B4B1A7015B0F0BCBB465C
:102FA000B246A946A046F0BD0121039B1A681378DA
:102FB0008B43137044E50007C00FFEF78BFB324BC9
:102FC000324AFEF7C5F8FEF7B5FB0499021C4846E5
:102FD00000F0DEFD53461B6818780007C00FFEF7AF
:102FE00079FB294B294AFEF7B3F8FEF7A3FB0599B5
:102FF000021C300000F0CCFD029B580043465900F3
:1030000049084008FDF77CF9FA218905FDF738F9F0
:1030100000283FD14B4672685B6851005800490850
:10302000400804930592FDF76BF9FC218905FDF733
:1030300013F900282ED10221039B1A6813780B4341
:103040001370B0E51249FDF7C5FC1149041C381C8A
:10305000FDF7C0FC0DAB211C0CAAFFF77DFA0C9B01
:103060000D9C9946B0E4C046CDCC4C4583F9224630
:10307000CDCCCC45FAAE6A447FD65043D4E226414B
:10308000B003002011040020BF7D4D3F92CB7F484C
:10309000E17A1D4253461B6818780007C00FFDF700
:1030A000BDFF0F49FDF796FC0299021C484600F04F
:1030B000CBFC53461B6818780007C00FFDF7AEFF26
:1030C0000749FDF787FC4146021C300000F0BCFCBC
:1030D0000221039B1A6813788B4313705EE5C04688
:1030E000A69BC43BF0B5DE464E4657464546E0B586
:1030F0008BB00400059001F02DFC0600002C00D1DF
:10310000BAE0002325009B4699460193029303935E
:103110005D4B5E4F9A465E4B98465E4B049301F0C2
:1031200019FC801B0A2800D99EE053461B78002B0F
:10313000F5D000235246137001F00CFC07AC0600DA
:103140000C222100380000F0BDFF43461860002823
:1031500006D0514B1A68802311785B420B431370E1
:103160000622A35E039A013D94469C446346039362
:103170000822A35EEDB299440022A35E029A94460F
:103180009C44634602930222A35E019A94469C44A7
:10319000634601930422A35E9B44049B9D71002D12
:1031A000BDD10398FDF73AFF82464846FDF736FF4A
:1031B00081460298FDF732FF80460198FDF72EFF09
:1031C00001905846FDF72AFF051C01F0C9FB334B5F
:1031D0001860380000F0DAFF061C0598FDF71EFFA6
:1031E000011CFE208005FDF72BFA2D4B041C9B468D
:1031F0005146301CFDF7EEFB211CFDF7EBFB5B4657
:103200001860380000F0C2FF4946FDF7E3FB211CBF
:10321000FDF7E0FB234E3060380000F0B5FF41467B
:10322000FDF7D8FB211CFDF7D5FB1F4E30603800A1
:1032300000F0AAFF0199FDF7CDFB211CFDF7CAFBA9
:103240001A4E3060380000F09FFF291CFDF7C2FBCA
:10325000211CFDF7BFFB164E30600BB0F0BCBB4627
:10326000B246A946A046F0BD0B4B1A6880231178E0
:103270005B420B43137094E70025044FA846A94610
:10328000AA460195A1E7C046900000202801002031
:103290009C0000208C020020180000202401002047
:1032A0009400002098000020A0000020A40000202E
:1032B000A800002002217B4AF0B5136883B00B43BD
:1032C0001360794A3E31136810250B43136000F0F8
:1032D000A3FD08212026754B754F1A680A431A6012
:1032E0001A682A431A601A6832431A60FFF7CEF848
:1032F0008023DB010120BB6201F054FB6B46981D6B
:10330000FFF7F4F8002800D1C3E06B46694ADB8878
:1033100094466344C82B00D9BEE0A024E4053220C3
:10332000A56101F03FFB80231B02BB62012001F07D
:1033300039FBA6611420A56201F094FB0220A5616F
:1033400001F030FB5C4E00233500183520222100AF
:10335000280001F023FA002800D187E0574C2060B4
:103360004021574B1A6813780B431370554D802238
:103370002F00A0211837012338005200C90501F0A1
:103380000DFA002800D17BE020604D4B1A688023A5
:1033900011785B420B4313700021300001F0CEF92D
:1033A0002060002805D04021454B1A6813780B4354
:1033B0001370C722C721300001F04EF920600028A9
:1033C00005D040213E4B1A6813780B43137001213E
:1033D000280000F09FFD2060002806D0384B1A68B6
:1033E000802311785B420B4313700621280000F004
:1033F000F1FD2060002806D0314B1A688023117837
:103400005B420B4313700621280000F0C9FD2060C9
:10341000002806D02A4B1A68802311785B420B43A0
:1034200013700621280000F023FE2060002806D03B
:10343000234B1A68802311785B420B4313700222DE
:103440000021280000F02EFE2060002806D01C4B32
:103450001A68802311785B420B431370642001F0DB
:10346000A1FA4020FFF73EFE03B0F0BD2900300076
:1034700001F0CAF8114C2060002800D176E76FE710
:103480003900280000F004FD2060002800D183E707
:103490007BE7094E013861E70123084C5B42064E89
:1034A00023605DE710E000E0003001400054004080
:1034B000000800505CF9FFFF4C0100209C00002038
:1034C0001800002028010020F0B5DE4657464E4681
:1034D0004546E0B5B74B8DB01A78002A00D1EEE032
:1034E000B5498A69120403D58A69D20300D4E6E09B
:1034F0000022B24C1A70E379002B0CD0B04DB14FC2
:10350000EB79E271FB71B04B1B681B78DB0700D5D0
:1035100012E10023FB71A37B002B05D0A84DA94B22
:10352000AA7B9A730023A373E37B002B06D00022AF
:10353000A34DEB7BE273DB0700D529E1A379002BD8
:1035400000D0ECE02379002B11D09D4D9D4B2879C4
:103550009E4D1871002340B22371FDF75FFD9C4919
:10356000FDF738FAFE218905FCF7CAFE2860637969
:10357000002B00D0AAE0002620212122635C6654A3
:10358000A05CA6541840130001339846E35C24273E
:1035900003404046265401308446205C9246184041
:1035A0006346E654E35DE65503402520255C26543A
:1035B000A9464A461D401A4200D19AE04346804D32
:1035C000EB5C984663464246EB5C1B0213431BB21E
:1035D00052469946EB5D2F5CA85C3F021F437D4B32
:1035E000000298466B5C3FB2184300B2FDF716FD2F
:1035F0007949FDF7EFF9434618604846FDF70EFD9F
:103600007549FDF7E7F9434658603800FDF706FDB8
:103610007249FDF7DFF943469860237C627C26748B
:103620001A40A37C66741340E27CA6741A40237D82
:10363000E6741340627D26756675694E1A4223D082
:10364000EF7CAB7C6C7D3F021F432B7D687C2402AA
:103650001C432B7C0002184300B2FDF7DFFC5E49DF
:10366000FDF7B8F95E4E3FB230603800FDF7D6FC8A
:103670005949FDF7AFF924B270602000FDF7CEFC88
:103680005649FDF7A7F9B06032006B4613CA13C361
:10369000434609A80ECB00F01BFB524B099A524C33
:1036A0001A60524B0A9A04AD1A60514B0B9A2800CB
:1036B0001A600ECE00F06EFB230013CD13C30DB0C5
:1036C000F0BCBB46B246A946A046F0BD3C4D3D4BC2
:1036D0006879484D5871002340B26371FDF79EFC34
:1036E0003B49FDF777F9FE218905FCF709FE2860C3
:1036F00041E7237C627C25741A40A37C65741340E7
:10370000E27CA5741A40237DE5741340627D257523
:1037100065751A42D3D02F4B294D984690E7284D16
:10372000284BA87998710023A371FFF7DBFC23795C
:10373000002B00D11BE708E700252A4B18009B4609
:1037400000F0ECF8294B18009A4600F0E7F8284BF7
:103750001800994600F0E2F81E4B214E1D605D6096
:103760009D6098466B4607CE07C3434609A80ECB1B
:1037700000F0AEFA5A46099B136052460A9B13604A
:103780004A460B9B13601C4B1D601C4B1D60C0E622
:1037900002230C4F1A48FB7300F0FAFC0A2300289E
:1037A00000D1062302229343FB7301F0D9F8154B95
:1037B0001860C3E6100400200054004050030020AD
:1037C000F00200208C020020100000200C000020DD
:1037D0006F12833A740100200000A039DB0FC93852
:1037E000800100209C0100208C0100201402002098
:1037F000AC0000200800002098010020700100208B
:10380000280100202401002010B5104C2378002B43
:103810000FD00F4A93691B0414D43C220D480E4963
:1038200001F0F8FAA0238022DB0592009A620023BF
:103830002370FFF749FE094B1B78002B01D0FEF7E0
:10384000E7FF10BD9369DB03E7D5F2E71104002021
:1038500000540040AC020020D00300209000002063
:103860000E4B0F4A70B50F4E0F4D1A600F4C104B98
:10387000104A211C1A601048331C2A1C00F028F83A
:10388000331C2A1C211C0D4800F022F80C4B0D4A59
:103890000D490E4800F01CF870BDC0464C010020D8
:1038A000D44E000817B7D138BD37863577CC2B32C8
:1038B00028010020C84E00089C01002014020020AE
:1038C000CDCCCC3D95BFD633FFE6DB2EAC0000203F
:1038D000F8B504000F1C161C00210C221D1C01F061
:1038E00067FA2000242200210C3001F061FA200048
:1038F0001C220021343001F05BFA20001C22002140
:10390000583001F055FAFE239B0520006765666676
:103910006567236323642365F8BDC04610B50400C2
:103920000C22002101F044FA2000242200210C3056
:1039300001F03EFA10BDC046F0B5D6464F464646A9
:10394000C0B54668040041634164301C0D1CFDF79E
:1039500041F8011C2068FCF7D3FCA1682060281CFA
:10396000FDF738F8311CFCF7CBFC2369616D606012
:10397000E0689946FCF7C4FCA669071C311C484660
:10398000FCF7BEFC291CFDF725F8011C381CFCF7D0
:10399000B7FCE3696769191CE060381C9846FCF7BE
:1039A000AFFC291CFDF716F84946FCF7A9FC236A71
:1039B000291C2061181C9A46FDF70CF8391CFCF7ED
:1039C0009FFC636A6061191C40469946FCF798FCAD
:1039D000291CFCF7FFFF311CFCF792FCA76AA061D1
:1039E000391C5046FCF78CFC291CFCF7F3FF616E78
:1039F000061C4046FCF784FC011C301CFCF780FCD4
:103A0000E36A291CE061181C9846FCF7E3FF061CDA
:103A1000011C5046FCF774FC291C2062381CFCF782
:103A2000D9FF4946FCF76CFC311C6062381CFCF77E
:103A300067FC4146A062606FFCF762FCE062E0BC9C
:103A4000BA46B146A846F0BDF0B5DE4657464E46EA
:103A500045460400E0B5636883B0081C191C151CBA
:103A60009B46FDF705F9E3698046191C281C994619
:103A7000FCF746FC011CFE208005FCF7E1FD2369F4
:103A8000051C191C9A46FCF7A5FF291C061C484674
:103A9000FCF7A0FFA36A071C191C281C0193FCF764
:103AA00099FF311C051C4046FCF794FF011C20685F
:103AB000FCF726FC391C20604046FCF78BFF59467A
:103AC000FCF71EFC291C60604046FCF783FF011CCC
:103AD000A068FCF715FCA369A060191C301C98466F
:103AE000FCF778FF011CE068FDF7C2F8311CE060CC
:103AF0004846FCF76FFF011C5046FDF7B9F8236AF2
:103B00002061191C301C9A46FCF764FF011C606997
:103B1000FDF7AEF86061FE20391C8005FDF7A8F8BE
:103B20004146061CFCF756FF49468046A061301C02
:103B3000FCF750FF8146E061FE20391C8005FDF74F
:103B400097F85146FCF746FF4146061C2062281CA8
:103B5000FCF740FF011C606AFDF78AF84946606285
:103B6000281CFCF737FF011C0198FDF781F8311C78
:103B7000A062281CFCF72EFF011CE06AFDF778F814
:103B8000E06203B0F0BCBB46B246A946A046F0BD19
:103B9000F0B5DE4657464E4645460400E0B5A368FC
:103BA00083B0081C191C151C9B46FDF761F8E76AD9
:103BB0008146391C281CFCF7A3FB011CFE20800554
:103BC000FCF73EFD63698046191C9A46FCF702FF2C
:103BD000236A061C191C40460193FCF7FBFE414674
:103BE000051C381CFCF7F6FE311C80464846FCF7E5
:103BF000F1FE011C2068FCF783FB291C206048466D
:103C0000FCF7E8FE011C6068FCF77AFB4146606047
:103C10004846FCF7DFFE5946FCF772FB636AA0607A
:103C2000191C301C9B46FCF7D5FE011CE068FDF713
:103C30001FF8A36AE060191C301C9946FCF7CAFE05
:103C4000011C2069FDF714F8311C2061381CFCF7B9
:103C5000C1FE011C5046FDF70BF859466061281C57
:103C6000FCF7B8FE011CA069FDF702F84946A06107
:103C7000281CFCF7AFFE011CE069FCF7F9FF291CCA
:103C8000E061381CFCF7A6FE011C0198FCF7F0FF70
:103C90002062FE2041468005FCF7EAFF5946051CDC
:103CA000FCF798FE49466062281CFCF793FEA06270
:103CB000FE2041468005FCF7DBFF391CFCF78AFE3D
:103CC000E06203B0F0BCBB46B246A946A046F0BDD8
:103CD000F0B5D6464F464646C0B584B003930C9B1C
:103CE000039F9A460D9B0500381C9946029201914C
:103CF00000F012FF041C381C00F06EFF5146061C39
:103D0000201CFCF767FE0199FCF7FAFA4946804649
:103D1000301CFCF75FFE011C4046FCF7A9FF514632
:103D20002860301CFCF756FE4946061C201CFCF798
:103D300051FE011C301CFCF7E3FA0299FCF7E0FA93
:103D40000E996860381CFCF7DBFA0F49041CFCF77D
:103D500097FA002804D0201C0C49FCF789FF041CAA
:103D60000B49AC60201CFCF76DFA002804D0074911
:103D7000201CFCF7C5FAA860280004B0E0BCBA46D5
:103D8000B146A846F0BDC046DB0F4940DB0FC94035
:103D9000DB0F49C0F0B5D6464F464646C0B584B0A5
:103DA00001910393019B0292039D9946029B04009B
:103DB000281C984600F0B0FE061C281C00F00CFFE2
:103DC0004146071CFCF706FE49468246301CFCF7BC
:103DD00001FE011C5046FCF793FA80231B069C460B
:103DE000604449462060381CFCF7F4FD4146071C3E
:103DF000301CFCF7EFFD011C381CFCF739FF802359
:103E00001B069C46606020006544A56004B0E0BCD1
:103E1000BA46B146A846F0BD0023144A10B5137047
:103E2000134A144C1370144A0021137020006022AE
:103E300000F0BEFF60220021104800F0B9FF6022B0
:103E400000210F4800F0B4FF602200210D4800F06F
:103E5000AFFF0D4B0F2123801023A3700B4B1A686B
:103E600013788B430B43137010BDC046EC02002047
:103E7000100400208C02002011040020F002002019
:103E8000B0030020500300205F1100001400002048
:103E900070B5040082B0081E38D06A460023616005
:103EA00013710F2101AA00F0BFFC00280AD16B4654
:103EB0001B796C2B2AD11021606801AA00F0B4FC98
:103EC000002801D002B070BD6B460F254026694620
:103ED0001B7960682B4033430B71DAB2102100F07C
:103EE00063FC0028EED11121606801AA00F09CFC5F
:103EF0000028E7D16B461B7911211D406B463543E5
:103F000060681D71EAB200F04FFCDBE7012040421F
:103F1000D8E7C04630B583B004000D0040681021DA
:103F200001AA00F081FC002801D003B030BD6A4630
:103F300003230C2112792B409B008A431A436B46C2
:103F4000606804311A7100F02FFC0028EDD1022DB9
:103F500012D004D8002D09D0094A0A4B03E0032DE2
:103F600007D1094A094BA260E360DEE7084A094B22
:103F7000F9E701204042D8E7074A084BF3E7C0467B
:103F800040DAFF39E7D09C3B40DA7F39E7D01C3B71
:103F900040DA7F38E7D01C3A40DAFF38E7D09C3A65
:103FA00030B583B004000D004068102101AA00F074
:103FB0003BFC00280CD16B460F221B792D011A40C7
:103FC0006B462A431A7110216068D2B200F0ECFBF4
:103FD00003B030BD30B583B004000D00406811213E
:103FE00001AA00F021FC002801D003B030BD6A46D0
:103FF00007230E2112792B405B008A431A436B463C
:10400000606803311A7100F0CFFB0028EDD1062D56
:1040100011D80C4BAD005B599F460B4A0B4B2261EC
:104020006361E2E70A4A0B4BF9E70B4A0B4BF6E7F1
:104030000B4A0C4BF3E701204042D6E70A4A0B4BF0
:10404000EDE7C04664630008295C8F3D7922A03A01
:10405000295C0F3D7922203A295C8F3C7922A039D6
:10406000295C0F3C79222039295C8F3B7922A038CA
:1040700030B583B004000D004068112101AA00F0A2
:10408000D3FB00280CD16B460F221B792D011A405F
:104090006B462A431A7111216068D2B200F084FB8A
:1040A00003B030BD10B5002906D0012906D10D316D
:1040B000406800F079FB10BD0D21F9E70120404276
:1040C000F9E7C04600B585B000290DD00B2A0BD901
:1040D0000023039303AB0A004068222100930C23C2
:1040E00000F0E4FB05B000BD01204042FAE7C04605
:1040F000F0B505000C0087B0002941D0052A3FD952
:10410000002303AE029302AB4068320000932221E9
:104110000C2300F0CBFB071E2FD10023F05EFCF731
:104120007DFF2969FCF756FC20600223F05EFCF756
:1041300075FF2969FCF74EFC60600423F05EFCF714
:104140006DFF2969FCF746FCA0600623F05EFCF7D2
:1041500065FFA968FCF73EFCE0600823F05EFCF711
:104160005DFFA968FCF736FC20610A23F05EFCF7CE
:1041700055FFA968FCF72EFC6061380007B0F0BD60
:1041800001277F42F9E7C04640697047C068704721
:10419000F0B557464546DE464E460023E0B593B09F
:1041A0000CAD06AF0400069340682A002221009758
:1041B0000C3300F07BFB002838D126690023E85E31
:1041C000FCF72CFF311CFCF705FC80460223E85E5F
:1041D000FCF724FF311CFCF7FDFB81460423E85E5D
:1041E000FCF71CFF311CFCF7F5FBA6688246062392
:1041F000E85EFCF713FF311CFCF7ECFB8346082359
:10420000E85EFCF70BFF311CFCF7E4FB02900A238D
:10421000E85EFCF703FF311CFCF7DCFB2A0003908F
:104220001421606800F000FB002806D013B0F0BC39
:10423000BB46B246A946A046F0BD0F2605232A7804
:104240001421B2431A432A706068D2B200F0ACFA6B
:104250000028EBD123680A2120001B68984706221A
:1042600039002000FFF744FF0028DFD12A00142185
:10427000606800F0D9FA0028D8D10E232A781421DA
:10428000B2431A432A706068D2B200F08DFA002857
:10429000CCD123680A2120001B68984706222900F8
:1042A0002000FFF725FF0028C0D11421606805AA6F
:1042B00000F0BAFA0028B9D102AB1A7B1421B2433C
:1042C00060681A7300F070FA0028AFD14146069872
:1042D000FCF7CEFC0C99041C4046FCF7C9FC69496C
:1042E000061C201CFBF7AEFF002800D0C6E0664984
:1042F000201CFBF7BBFF002800D0BFE06149301C49
:10430000FBF7A0FF002800D0B8E05F49301CFBF7A6
:10431000ADFF002800D0B1E049460798FCF7A8FCA3
:104320006968041C4846FCF7A3FC5649061C201C7F
:10433000FBF788FF002800D0A0E05349201CFBF7C2
:1043400095FF002800D099E04E49301CFBF77AFF1A
:10435000002800D092E04C49301CFBF787FF002872
:1043600000D08BE051460898FCF782FCA968041C39
:104370005046FCF77DFC4349061C201CFBF762FFFE
:1043800000287BD14049201CFBF770FF002875D125
:104390003C49301CFBF756FF00286FD13A49301CCE
:1043A000FBF764FF002869D159460998FCF760FCC7
:1043B000E968041C5846FCF75BFC3449061C201CC9
:1043C000FBF740FF002859D13149201CFBF74EFF75
:1043D000002853D12D49301CFBF734FF00284DD164
:1043E0002B49301CFBF742FF002847D1029E0A9858
:1043F000311CFCF73DFC2969041C301CFCF738FC1F
:104400002249061C201CFBF71DFF002836D120493D
:10441000201CFBF72BFF002830D11C49301CFBF778
:1044200011FF00282AD11A49301CFBF71FFF002872
:1044300024D1039E0B98311CFCF71AFC6969041CFB
:10444000301CFCF715FC1149051C201CFBF7FAFE7B
:10445000002813D10E49201CFBF708FF00280DD1BE
:104460000A49281CFBF7EEFE002807D10849281C42
:10447000FBF7FCFE431E98414042D7E60120404234
:10448000D4E6C0460000164300002F44CDCC4C3D7E
:104490009A99D93FF0B52F4E0400370083B0B51E6E
:1044A000263702E00236B74208D072783178606869
:1044B00000F07AF90028F5D003B0F0BD6B46582122
:1044C000D871DA1D606800F0AFF90028F4D16B46AE
:1044D000DB7960687F2B1BD80422582100F064F937
:1044E0000028E9D180225721606800F05DF900289A
:1044F000E2D12F00184E6E3702E00236B74215D0D7
:1045000072783178606800F04FF90028F5D0D3E771
:104510008422582100F048F90028CDD100225721EB
:10452000606800F041F90028E3D0C5E72368642102
:1045300020001B6829359847FF35084E02E00236F7
:10454000B542B9D072783178606800F02DF9002852
:10455000F5D0B1E782630008AA630008F0630008A1
:10456000F0B583B06B469C1D002305000A26082782
:10457000237000221521686800F016F9002815D173
:104580002B68012128001B689847220015216868C4
:1045900000F04AF9002809D12378BB43B72B07D094
:1045A000013EF6B2002EE4D10120404203B0F0BD3E
:1045B0002800FFF76FFF0028F8D16B4602216868DA
:1045C000DA1D00F031F90028F0D16B46032168684C
:1045D000DA1D00F029F90028E8D16B46042168684B
:1045E000DA1D00F021F90028E0D16B46052168684A
:1045F000DA1D00F019F90028D8D16B460621686849
:10460000DA1D00F011F9D1E710B5040082B0081EE0
:104610001ED06A4600236160D3710021073200F08A
:1046200003F9002812D16B46DB794F2B10D16B4672
:104630005F216068DA1D00F0F7F8002806D16B46AC
:10464000DB79B02B04D12000FFF78AFF02B010BD48
:1046500001204042FAE7C046F0B54746CE4680B555
:1046600006000D00170083B0C7295DD8C72A5BD8A4
:10467000CAB24068482100F097F8041E05D0200017
:1046800003B0C0BCB946B046F0BD002249217068F5
:1046900000F08AF8041EF2D14A217068FAB200F0E4
:1046A00083F8041EEBD100224B21706800F07CF8E7
:1046B000041EE4D16B4647217068DA1D00F0B4F89F
:1046C000041EDCD16B46DA7901231A436B4647217D
:1046D0007068DA7100F068F8041ED0D164230135E7
:1046E000A8B258439846FCF799FC011CFE208005AF
:1046F000FBF7A6FF434601378146B060B8B2584386
:10470000FCF78CFC011CFE208005FBF799FF084993
:10471000051CF0604846FCF75DF905493061281C2E
:10472000FCF758F97061AAE701246442A7E7C04684
:10473000A913D03C006970474069704730B583B019
:1047400004000D1C40685B2101AA00F06DF80028F0
:104750000CD16A461F2312799D431A406B462A43A7
:104760001A715B216068D2B200F01EF803B030BD50
:1047700000B585B000290DD00B2A0BD90023039377
:1047800003AB0A004068162100930C2300F08EF85A
:1047900005B000BD01204042FAE7C046016042601A
:1047A000037200207047C046F0B5C6460368140087
:1047B000426800B59A627F2301220B40017A194EAC
:1047C0005140C9010B43DBB23373050000F0C2F85E
:1047D0008023070098464246B3681A420CD000F086
:1047E000B9F8C01B0128F6D901202B686A6840423D
:1047F0009A6180BCB846F0BD337B347300F0AAF8F0
:1048000080260700074CA3681E4205D1237B6A68F7
:104810002B6800209A61ECE700F09CF8C01B01288F
:10482000F1D9E1E700300140F0B5C6460368170052
:10483000426800B59A627F23027A0B40D20113438B
:10484000194CDBB22373050000F084F88026804603
:104850003200A3681A401E420DD000F07BF8434698
:10486000C01A0128F4D901202B686A6840429A6175
:1048700080BCB846F0BD237B227300F06BF8802625
:104880008046094CA3681E4206D1237B00203B7062
:104890002B686A689A61EBE700F05CF84346C01A3F
:1048A0000128EFD9DFE7C04600300140F0B5D64619
:1048B00046464F46824614001D0042680368C0B554
:1048C0009A6253467F201B7A0840DB011843204E32
:1048D000C0B2307300F03EF880230700984642468D
:1048E000B3681A4210D000F035F8C01B0128F6D981
:1048F0005346524601201B68526840429A61E0BC10
:10490000BA46B146A846F0BD337B002D19D0A84663
:104910000023802799460E4DA04404E02B7B237092
:10492000013444450DD04B462B7300F013F80600BC
:10493000AB681F42F2D000F00DF8801B0128F7D9B8
:10494000D6E7534652461B68526800209A61D6E764
:1049500000300140014B18687047C0461404002025
:104960000E4A0F4B106810B5996814689B68A042F6
:1049700000D019000A4A53685B1A5801C01A5168DE
:104980008000C0180131C000FBF7BEFB63011B1B98
:104990009B001B19DB00C01810BDC046140400208A
:1049A00010E000E0F8B54746CE462C4D2C4B296868
:1049B00080B59A682F6806009B68B94200D01A003B
:1049C000274C636861689B1A5801C01A8000C018A0
:1049D000C0000131FBF798FB81467B01DB1B9B008C
:1049E000DF1973019B1B9B009E19FF00F300984683
:1049F000B94413E09B1A5801C01A61688000C018BE
:104A0000C0000131FBF780FB4A4673019B1B9B00F2
:104A10009B19DB009B1AC01880451AD92F68A16822
:104A20002E68A2686368B742E4D15B1A5801C01AC5
:104A300061688000C018C0000131FBF765FB4A4681
:104A40007B01DB1B9B00DB19DB009B1AC018804538
:104A5000E4D8C0BCB946B046F8BDC0461404002036
:104A600010E000E0F8B5CE464746294D294B2968AD
:104A70009A682E68814680B59B68B14200D01A00C2
:104A8000244C636861689B1A5801C01A8000C018E2
:104A9000C0000131FBF738FB804673019B1B9B0074
:104AA0009E19F600B04413E09B1A5801C01A6168C1
:104AB0008000C018C0000131FBF726FB42467B0195
:104AC000DB1B9B00DB19DB009B1AC01881451AD940
:104AD0002E68A1682F68A2686368BE42E4D15B1AA1
:104AE0005801C01A61688000C018C0000131FBF78E
:104AF0000BFB424673019B1B9B009B19DB009B1A1F
:104B0000C0188145E4D8C0BCB946B046F8BDC0461F
:104B10001404002010E000E0F0B5C6462B4900B5B3
:104B2000061CFBF757FFFA218905FBF7E9FB051C7B
:104B3000FCF754FA26490400301CFBF783FB431EA4
:104B40009841241A2000FCF769FA011C281CFCF784
:104B50008FF88821C905FBF73DFF041CFBF7B8FB64
:104B6000802385B29B009D4223D22800FCF7A8FA3F
:104B7000011C8046201CFCF77BF86E1C071CFE21E4
:104B800040468905FBF7BCFB211CFCF771F8114C72
:104B9000AD002959FBF71EFFB6003159051C381C22
:104BA000FBF718FF011C281CFBF7AAFB80BCB846CA
:104BB000F0BD8821201CC905FCF75AF80023012606
:104BC00000259846041C071CD9E7C04683F9223EFD
:104BD000DB0FC9BFA8640008F0B5C646284900B578
:104BE000FBF7F8FE041CFCF7F9F900210500201C76
:104BF000FBF728FB431E98412D1A2800FCF70EFAFC
:104C0000011C201CFCF734F88821C905FBF7E2FEE3
:104C1000041CFBF75DFB802385B29B009D4223D2E1
:104C20002800FCF74DFA011C8046201CFCF720F8F8
:104C30006E1C071CFE2140468905FBF761FB211C09
:104C4000FCF716F80F4CAD002959FBF7C3FEB60070
:104C50003159051C381CFBF7BDFE011C281CFBF755
:104C60004FFB80BCB846F0BD8821201CC905FBF76E
:104C7000FFFF0023012600259846041C071CD9E7E6
:104C800083F9223EA864000870B5051C00F018F8EE
:104C9000291C041C281CFCF78BF900280ED10021CC
:104CA000281CFBF7CFFA002808D000F089F8212350
:104CB00000210360081CFBF7C3FC041C201C70BD12
:104CC000F7B503004200041CFF205208C0058242D1
:104CD0000AD3211C201CFBF77DFE011C201CFBF7C6
:104CE0000FFB041C201CFEBD002AFBD0002C07DAA1
:104CF000211C201CFBF7BCFF011CFBF7A1FCF0E70B
:104D00002200E1150240044247D0802208005B02E5
:104D10005B0A12047F381343C90700D45B000024E8
:104D2000802142102600192001925B004904751869
:104D30001A009D4202DC6E185A1B64180138530099
:104D400049080028F3D1002A18D0174D174E2868BB
:104D50003168FBF78DFF2F68011C381CFBF77CFACC
:104D600000280BD028683168FBF7CAFA2D68011CAF
:104D7000281CFBF767FA002812D00234FC226310CB
:104D800092059B18019AD405E418ABE75B00013249
:104D90000342FBD0013A891AB7E780200004F7E705
:104DA000012301349C43E9E71C000020200000207F
:104DB00003008218934200D1704719700133F9E75C
:104DC000014B18687047C0467000002070B500267F
:104DD0000C4C0D4D641BA410A64209D1002600F016
:104DE00023F80A4C0A4D641BA410A64205D170BDDD
:104DF000B300EB5898470136EEE7B300EB589847FD
:104E00000136F2E7AC6C0008AC6C0008B46C00082A
:104E1000AC6C0008002310B59A4200D110BDCC5CE8
:104E2000C4540133F8E70000F8B5C046F8BC08BC2C
:104E30009E467047F8B5C046F8BC08BC9E46704711
:104E400018080008A6070008FA060008B2060008BD
:104E5000FA060008E2070008FA060008B206000891
:104E6000A6070008A6070008E2070008B206000827
:104E7000B8060008B8060008B8060008F0070008E1
:104E8000A6070008A6070008FA060008AE060008F4
:104E9000FA060008E2070008FA060008AE06000855
:104EA000A6070008A6070008E2070008AE060008EB
:104EB000B8060008B8060008B8060008EC070008A5
:104EC00000000000000000004D2500080000000068
:104ED00000000000412500089CA3A8ADB2B7BCC0EB
:104EE000C5C9CED3D7DBDFE4E6EBEFF1F4F6F9FB8F
:104EF000FD000305070A0C0F11151A1C2125292D89
:104F000032373B4044494E53585D64005361655C01
:104F1000383434342D2D302D2B3424353E13324883
:104F200034FB244D727D713E0AFD334832133C320E
:104F300020332E2A302D2D303133313333374C5E30
:104F40005D442A2A2A402E2B2B27262B271B323E54
:104F50000F314432FB1551737D69440E07324030E6
:104F60000E362E1D2A2821292C272C2C2C312D32AF
:104F700035353431332C363329292B272B22282A57
:104F80001D2C320C2F442BFE1C5B7A7D7732100BCC
:104F900035412D0E31291C2A212427252A2A27298B
:104FA0002B292B2E2E43362B2E272327282527244B
:104FB00020222118292F0D2A422AFE22507A7D6FA5
:104FC000351BF92A4129102A2A1D222522222423B1
:104FD0002828262A282A3231383935242A26242717
:104FE0002220241C1D2214232C0A2C4134FC1C4C8E
:104FF000797D6E3B1701303E2A0D2A281525241E87
:10500000221E232221232526282D30292321242452
:1050100024242324241F1E181A171E250C26372E7D
:10502000FF1646737D704612FF2736280C2423177F
:105030001E1B1E1F1F1F20212320232E272F211F51
:105040002121202223241F201D141C160E1F1E0A9E
:10505000273825F613477A7D6F3519F71C34250656
:1050600021210F191D181F1F1C211E202021232361
:1050700029231E1F201F212224221E2217191E143D
:105080001F240D2032260612427B7D693B0E02272B
:10509000342208231E141E181921191F1F1C1D1E3F
:1050A00020222125211E1E1E1F1F2121201C191810
:1050B000171312181709192213F7082C6A7D622C8E
:1050C00008F713251802131211131919181D1B1DA7
:1050D0001D1D1B1C1E1C211F1D1E1D1F1E1E201CF6
:1050E0001B1A141916111C1C041A2409F4052B6D23
:1050F0007D5F2803F00E261603181A0D171C131DCA
:105100001A171E1A1A1A1B1B1A1D1C1F1E1F1C1DE4
:105110001E1D1D1B1C1B181A1A15170B131B09F833
:1051200007205E7D59260CF60D1A120A181416195E
:10513000171C1C1A1C1B1B1B1B1919191D1B1C1BC4
:105140001B1A18171615161415160E0D0F04FF0846
:105150000CF7E9F715507D431AFAE6FD0C0BFD0933
:105160000E0C0C15141216151616171816161A1BF7
:1051700021181D1A1A1A171918171D191D1C171591
:1051800015050D1201EEFD1E5D7D5422F7F001158F
:10519000110B1818151E19161B16181816171717A5
:1051A00018161B1D1E1D1A19181715151617181875
:1051B00015140A0A060606FEEF0411497D3914F992
:1051C000EFFB0C08090D0F15151415151416151401
:1051D00017171719191B1C181313110E0E0D0D0F8D
:1051E0000B0F0E0B0A01FFFF0100F0E9FA134D7DD2
:1051F0004314F6E7F4020200FF060D09100D0B0E32
:105200000C0D0E0D0F101011131C1B1A19181A1566
:105210001718161A1A191918111314111614070F42
:105220002C607D5B2310071319131717191F1A170A
:1052300018181418161416161718191C1E1E1D1BE4
:10524000191A18161817161A151116100E11101211
:1052500010041121547D4F1A130711161117100F46
:1052600019171918141616141617171A1B1E1F0DC6
:105270000B0B09090608060607040804FF07FCFCD7
:1052800004010501FB0B17437D461707FA070706C4
:105290000604010A05070702050404060407070AB5
:1052A0000A0E1515151215151214141114150E11D8
:1052B0001814171F2129332C25426D7D6B3D252A9B
:1052C000332F22231C1B191A1514120E12110F1240
:1052D000121416161820211A18191A16171816164D
:1052E000180F101D151A26242D3731333D667D69A0
:1052F0003D2F35372E282C201C1E1B141812151775
:10530000151617171A1B1D1C1E1517120F100D0D41
:105310000D0B090C01070A0A0C1A1C202B2A2A2F34
:105320005A7D5B33282A2F221E20151013090C0EDC
:1053300006070C0C0D0E0F0E13141D09090A08099F
:1053400007070506050406FC0407010616121620C9
:105350001C1E274D7D512720202418161A0C080FDB
:10536000030308000004030605070708090C1411CD
:105370001110110F0E0E0C0C0B0A050A0A0E111A51
:1053800020242C22223D667D683D262331262520BF
:105390001616140B0C0C06070A0C0E0D110F10122A
:1053A000141310120F100F0E0D0D0C0B0A040C0C21
:1053B000101623232E3D362A386C7D774E2E393F2A
:1053C000332B291C19150C0E0E07080C0D0D0F1090
:1053D00010121115121111100F0F0E0D0E0C0B0DD6
:1053E000050D0D0F1726262A38382E31307D35420F
:1053F000363C4130282D1B18180D0D0E07090D0CD9
:105400000F0F0F101213141110100E0E0C0F0B0DA6
:105410000B0B0B030B0D0A0F231C233230262C1110
:105420007D33372D3236251F28130E150A050E0839
:105430000B0E0B0E0E0F1011111115131311120F6D
:105440001010100E0D0E060F100F1826282E3935CD
:1054500031322A7D4443353A3F2F292C1D17190E2E
:105460000E0F080A0E0D101110111312141312133F
:1054700010100D0E0E0E0C0D0B050D0D121923251F
:105480002E3D362A3D607D72472F3A402F2B291D35
:1054900019160E0E0E07080D0E0D0E101011121318
:1054A0001412120F0F0E0D0E0C0B0A0C040A0B0F28
:1054B000121D1F242B2020375C7D673F29253026B5
:1054C000251F1717150B0F0E06080C0D0E0E1010CA
:1054D0001313140B0808080706060406060405FC47
:1054E00004060306191216221E1E234F7D522D217B
:1054F00022251B151A0D09100502090302060608CC
:1055000008090909090B1C17161210100F0E0E0CB2
:105510000B0D02090E0D0F1B1C242E282A30587D5E
:105520005F372D2C2E241F22141114090C0E07098D
:105530000D0D1011131218151A1F1D1C1A191A1807
:10554000161916171B11141F171D28282E3A343050
:105550003E647D6C4332333D2D292D1E1D1E1C16CD
:105560001A13171A19191B1B1C1C1C1F19181614A7
:10557000141412141611151510141B161921242BAE
:10558000362A2340697D71472A2D372F25251E1C79
:105590001A1C171613111515151715181818180FAA
:1055A0000C0B0A090808060708060B05020AFF018A
:1055B00007070704F70715417D5220110006090867
:1055C0000804020B080A0A050807060A090B0D0C55
:1055D0000C10221E1D1A1A1A19171918191A1A1541
:1055E00019121413151510071219517D5731190B83
:1055F0001716131A12121B19191C16181A1A1C1C2A
:105600001D1E1F20221D1D1C1A181915181B181CE1
:105610001C1C1C1B161919141C150B0D215B7D6716
:1056200035190F191C171A171B201E1B1C1C191CBF
:105630001A1A1E1C1C1C1E1F1514141212101111F4
:105640000E110F14130E0D0805010504F4E6F913ED
:105650003C7D571C04EEF905090403080E0D1211D8
:1056600010131113121115151818171F1A1A1C1BD5
:105670001B19181A19191C1B181911100C090CFEEA
:10568000EFFF143C7D54210BF6020C0D0C0D11178D
:105690001B191C1A1A1B1A1B1C1D1F2120211D1C43
:1056A0001C1B1B1D1B1E1C1B201D21231B1A1B0F3B
:1056B0001519FDF3FD24567D652906F7091A160F05
:1056C0001C1B1B211F1D221C1C1E1B21201F2221F5
:1056D000211F1C1D1B1E1B1B1C1B1C18191C11141D
:1056E000130D00110EFEEAFE1D3E7D561E07F0054D
:1056F0001310040D1312121B19181C191D1D1C2147
:1057000021222121221D1F1F201F2020221F212393
:105710001E211E1B1B0E191B13F909284F7D692E14
:10572000110013231A111E1B1D1D1D2023202223CF
:1057300023242225262324221F201F202221231E4A
:1057400021231B241C14211E081E2909F60E326376
:105750007D77390FFC172F270A2323151C211B21C6
:1057600022202723262524252523282624232222F8
:10577000242322231C202017181B180C202718FB79
:1057800012314D7D714312031A29220F1F21191B5B
:105790001F1F1F262427272726282725262B2826B4
:1057A00025242524242523282323261D272C0F29BF
:1057B0003B260310336D7D7D4E1D0F3A3F2F192D73
:1057C000281B261F2028262A2C2929272726262879
:1057D0002C2A282826272626232727202620172973
:1057E0002A0B2B3E1AFC16496C7D7A5822042C4455
:1057F0002E112A2B181F241E2729262D2A2A292755
:1058000029272C33342C2A2A282928282A262924F7
:10581000251D282D112F402704173B697D7B522A17
:105820000939482F1A2E2A20232327292C2F2C30E0
:105830002D2D2B2B2B2F493B312E2D2D292C2A277B
:105840002C262A2A1F2F3615324227061C48637D34
:105850007D662B0B3F4D3915372F1F2B2B252F2CFA
:105860002D2F2D312D2D2C2E2E3A3B3B3A35302D20
:105870002E2E2E2A272D282633351A344434081983
:105880003C6C7D7C5F290A3651391B3831252B2B26
:105890002A2F2F2F35343230302F36344248563CA1
:1058A00035353232332C302B2C3225363D1B3548E2
:1058B00044091F38637D7D5D2A0E3A543B1A4338F4
:1058C000273534303532333333363235333933508C
:1058D00048464239373A363132312E2E3626384153
:1058E00019354D430B1A336E7D78662E053E543DB7
:1058F0001946422C3A393635343635363937353C47
:10590000393B54555C63634548413B373731333C41
:105910002F3B431C3B4C460B2333747D7B53390D8B
:10592000515E4223504633403E3E3B3E3C39393E79
:105930003E3E3D3C4D0000004F5E62562D29292819
:105940001F1C1C19181B11161909101512080F0F0E
:105950000F0C0F0F0D091115130A1A170F191A1A28
:105960001C1F20222626262A2A2C465B584025204A
:105970002037211F1A171717160E1316070F120EAE
:10598000060A0D0C0B0E0D0D060F16120816130F3E
:10599000151517191D1E201F232526292D30322DE0
:1059A0002F2730271E1D1C1A191517150E13140545
:1059B0000E130C040C0D0D0A0E0D0C06111410081C
:1059C00016140D151516181B1F1E1E20222128291E
:1059D0002B41352629211D1C1C1A18181311120BD6
:1059E0001313050D120C04090C0B0A0D0A0B040EFF
:1059F000130F0615130E1415141817191E1F1F2345
:105A000021252F31373A321F251F1E1C191614125B
:105A100012120C1113050F120E030A0B0D090C0BB9
:105A20000A040E120E0614120C1314141616191969
:105A30001A1A1F24252930292121211F1E1D1D1757
:105A400018170D1211091214020E120C04090A0B78
:105A5000090B0C09020B120D0310140A1214111673
:105A600016161A191D1E1F2B2733201C1F1F1D1D44
:105A70001D1C1B15140F0F100A0E10050C120A0323
:105A800008090A09090808020A100C04110E0A1074
:105A9000111214161815161D1B1E21252C271F1D4B
:105AA0001C1E1C1F1E1B1B150F110E0A1112020EAD
:105AB000100701060909050807080009100C021162
:105AC00010080E1211151816171A191D1D25242954
:105AD000241F1F1C1B1F1B1D1A12160D130F07134B
